{
  "contractName": "Administrated",
  "abi": [
    {
      "constant": true,
      "inputs": [],
      "name": "managingContract",
      "outputs": [
        {
          "name": "",
          "type": "address"
        }
      ],
      "payable": false,
      "stateMutability": "view",
      "type": "function"
    }
  ],
  "bytecode": "0x6060604052341561000f57600080fd5b60e78061001d6000396000f300606060405260043610603f576000357c0100000000000000000000000000000000000000000000000000000000900463ffffffff1680632ea9cccb146044575b600080fd5b3415604e57600080fd5b60546096565b604051808273ffffffffffffffffffffffffffffffffffffffff1673ffffffffffffffffffffffffffffffffffffffff16815260200191505060405180910390f35b6000809054906101000a900473ffffffffffffffffffffffffffffffffffffffff16815600a165627a7a7230582038631bc029ec2af1e2df393e821d155c52148e490b6f96880ff65c9599f1c3130029",
  "source": "pragma solidity ^0.4.18;\n\n\ncontract Administrated {\n    address public managingContract;\n\n    modifier sudo() {\n        require(msg.sender == managingContract);\n        _;\n    }\n}",
  "sourcePath": "/home/yuliang/工作/feather-contract/contracts/Administrated.sol",
  "compiler": {
    "name": "solc",
    "version": "0.4.18+commit.9cf6e910.Emscripten.clang"
  },
  "schemaVersion": "1.0.1",
  "updatedAt": "2017-12-04T03:31:09.447Z"
}