{
  "contractName": "Administrated",
  "abi": [
    {
      "constant": true,
      "inputs": [],
      "name": "managingContract",
      "outputs": [
        {
          "name": "",
          "type": "address"
        }
      ],
      "payable": false,
      "stateMutability": "view",
      "type": "function"
    },
    {
      "constant": true,
      "inputs": [],
      "name": "heirManagingContract",
      "outputs": [
        {
          "name": "",
          "type": "address"
        }
      ],
      "payable": false,
      "stateMutability": "view",
      "type": "function"
    },
    {
      "constant": false,
      "inputs": [],
      "name": "succeed",
      "outputs": [],
      "payable": false,
      "stateMutability": "nonpayable",
      "type": "function"
    },
    {
      "constant": false,
      "inputs": [
        {
          "name": "_newManagingContract",
          "type": "address"
        }
      ],
      "name": "changeManagingContract",
      "outputs": [],
      "payable": false,
      "stateMutability": "nonpayable",
      "type": "function"
    },
    {
      "inputs": [
        {
          "name": "_managingContract",
          "type": "address"
        }
      ],
      "payable": false,
      "stateMutability": "nonpayable",
      "type": "constructor"
    }
  ],
  "bytecode": "0x6060604052341561000f57600080fd5b6040516020806103f283398101604052808051906020019091905050806000806101000a81548173ffffffffffffffffffffffffffffffffffffffff021916908373ffffffffffffffffffffffffffffffffffffffff160217905550506103778061007b6000396000f300606060405260043610610062576000357c0100000000000000000000000000000000000000000000000000000000900463ffffffff1680632ea9cccb146100675780639baf9977146100bc578063acf495f314610111578063c34ab97414610126575b600080fd5b341561007257600080fd5b61007a61015f565b604051808273ffffffffffffffffffffffffffffffffffffffff1673ffffffffffffffffffffffffffffffffffffffff16815260200191505060405180910390f35b34156100c757600080fd5b6100cf610184565b604051808273ffffffffffffffffffffffffffffffffffffffff1673ffffffffffffffffffffffffffffffffffffffff16815260200191505060405180910390f35b341561011c57600080fd5b6101246101aa565b005b341561013157600080fd5b61015d600480803573ffffffffffffffffffffffffffffffffffffffff169060200190919050506102ac565b005b6000809054906101000a900473ffffffffffffffffffffffffffffffffffffffff1681565b600160009054906101000a900473ffffffffffffffffffffffffffffffffffffffff1681565b3373ffffffffffffffffffffffffffffffffffffffff16600160009054906101000a900473ffffffffffffffffffffffffffffffffffffffff1673ffffffffffffffffffffffffffffffffffffffff1614151561020657600080fd5b600160009054906101000a900473ffffffffffffffffffffffffffffffffffffffff166000806101000a81548173ffffffffffffffffffffffffffffffffffffffff021916908373ffffffffffffffffffffffffffffffffffffffff1602179055506000600160006101000a81548173ffffffffffffffffffffffffffffffffffffffff021916908373ffffffffffffffffffffffffffffffffffffffff160217905550565b6000809054906101000a900473ffffffffffffffffffffffffffffffffffffffff1673ffffffffffffffffffffffffffffffffffffffff163373ffffffffffffffffffffffffffffffffffffffff1614151561030757600080fd5b80600160006101000a81548173ffffffffffffffffffffffffffffffffffffffff021916908373ffffffffffffffffffffffffffffffffffffffff160217905550505600a165627a7a7230582060965816d895d39211cd62e70c8997832ac74da01ca1dfa9c06a7301d961d0510029",
  "source": "pragma solidity ^0.4.18;\n\n\n//import './OfficialOps.sol';\n\ncontract Administrated {\n\n    address public managingContract;\n\n    address public heirManagingContract;\n\n    //初始化时设定好管理合同地址\n    function Administrated(address _managingContract) public {\n        managingContract = _managingContract;\n\n        //能否直接创建一个OfficialOps作为官方操作合同\n        //暂时放弃此想法,限制了后期OfficialOps的可能的变动\n        //managingContract = new OfficialOps(this);\n    }\n\n    //更新管理合同地址,主要是managingContract发布新版本时,address会产生变动\n    //考虑到公平,原则上是managingContract不允许改变.后面待讨论\n    function changeManagingContract(address _newManagingContract) sudo public {\n        heirManagingContract = _newManagingContract;\n    }\n\n    //新管理合同确认接管旧合同\n    function succeed() public {\n        require(heirManagingContract == msg.sender);\n        managingContract = heirManagingContract;\n        heirManagingContract = 0;\n    }\n\n    //是否是管理合同\n    modifier sudo() {\n        require(msg.sender == managingContract);\n        _;\n    }\n}",
  "sourcePath": "/mnt/hgfs/share/feather-contract/contracts/Administrated.sol",
  "compiler": {
    "name": "solc",
    "version": "0.4.18+commit.9cf6e910.Emscripten.clang"
  },
  "schemaVersion": "1.0.1",
  "updatedAt": "2017-12-05T09:35:23.494Z"
}