{
  "contractName": "Managed",
  "abi": [
    {
      "constant": true,
      "inputs": [
        {
          "name": "",
          "type": "address"
        }
      ],
      "name": "isAdministrator",
      "outputs": [
        {
          "name": "",
          "type": "bool"
        }
      ],
      "payable": false,
      "stateMutability": "view",
      "type": "function"
    },
    {
      "constant": false,
      "inputs": [
        {
          "name": "new_manager",
          "type": "address"
        }
      ],
      "name": "hire_manager",
      "outputs": [],
      "payable": false,
      "stateMutability": "nonpayable",
      "type": "function"
    },
    {
      "constant": true,
      "inputs": [],
      "name": "heir",
      "outputs": [
        {
          "name": "",
          "type": "address"
        }
      ],
      "payable": false,
      "stateMutability": "view",
      "type": "function"
    },
    {
      "constant": false,
      "inputs": [
        {
          "name": "new_admin",
          "type": "address"
        }
      ],
      "name": "demise",
      "outputs": [],
      "payable": false,
      "stateMutability": "nonpayable",
      "type": "function"
    },
    {
      "constant": false,
      "inputs": [],
      "name": "succeed",
      "outputs": [],
      "payable": false,
      "stateMutability": "nonpayable",
      "type": "function"
    },
    {
      "constant": false,
      "inputs": [
        {
          "name": "ex_manager",
          "type": "address"
        }
      ],
      "name": "fire_manager",
      "outputs": [],
      "payable": false,
      "stateMutability": "nonpayable",
      "type": "function"
    },
    {
      "constant": true,
      "inputs": [
        {
          "name": "",
          "type": "address"
        }
      ],
      "name": "isManager",
      "outputs": [
        {
          "name": "",
          "type": "bool"
        }
      ],
      "payable": false,
      "stateMutability": "view",
      "type": "function"
    },
    {
      "constant": true,
      "inputs": [],
      "name": "admin",
      "outputs": [
        {
          "name": "",
          "type": "address"
        }
      ],
      "payable": false,
      "stateMutability": "view",
      "type": "function"
    },
    {
      "inputs": [],
      "payable": false,
      "stateMutability": "nonpayable",
      "type": "constructor"
    },
    {
      "anonymous": false,
      "inputs": [
        {
          "indexed": true,
          "name": "manager",
          "type": "address"
        }
      ],
      "name": "Hired",
      "type": "event"
    },
    {
      "anonymous": false,
      "inputs": [
        {
          "indexed": true,
          "name": "ex_manager",
          "type": "address"
        }
      ],
      "name": "Fired",
      "type": "event"
    },
    {
      "anonymous": false,
      "inputs": [
        {
          "indexed": true,
          "name": "old",
          "type": "address"
        },
        {
          "indexed": true,
          "name": "_new",
          "type": "address"
        }
      ],
      "name": "Abdicated",
      "type": "event"
    }
  ],
  "bytecode": "0x6060604052341561000f57600080fd5b33600360006101000a81548173ffffffffffffffffffffffffffffffffffffffff021916908373ffffffffffffffffffffffffffffffffffffffff16021790555060018060003373ffffffffffffffffffffffffffffffffffffffff1673ffffffffffffffffffffffffffffffffffffffff16815260200190815260200160002060006101000a81548160ff02191690831515021790555060016000803373ffffffffffffffffffffffffffffffffffffffff1673ffffffffffffffffffffffffffffffffffffffff16815260200190815260200160002060006101000a81548160ff0219169083151502179055506108c88061010d6000396000f30060606040526004361061008e576000357c0100000000000000000000000000000000000000000000000000000000900463ffffffff1680630a2eb3011461009357806341527209146100e457806391f2ebb81461011d5780639975344b14610172578063acf495f3146101ab578063f0f5cb02146101c0578063f3ae2415146101f9578063f851a4401461024a575b600080fd5b341561009e57600080fd5b6100ca600480803573ffffffffffffffffffffffffffffffffffffffff1690602001909190505061029f565b604051808215151515815260200191505060405180910390f35b34156100ef57600080fd5b61011b600480803573ffffffffffffffffffffffffffffffffffffffff169060200190919050506102bf565b005b341561012857600080fd5b6101306103b4565b604051808273ffffffffffffffffffffffffffffffffffffffff1673ffffffffffffffffffffffffffffffffffffffff16815260200191505060405180910390f35b341561017d57600080fd5b6101a9600480803573ffffffffffffffffffffffffffffffffffffffff169060200190919050506103da565b005b34156101b657600080fd5b6101be6104cd565b005b34156101cb57600080fd5b6101f7600480803573ffffffffffffffffffffffffffffffffffffffff16906020019091905050610761565b005b341561020457600080fd5b610230600480803573ffffffffffffffffffffffffffffffffffffffff16906020019091905050610856565b604051808215151515815260200191505060405180910390f35b341561025557600080fd5b61025d610876565b604051808273ffffffffffffffffffffffffffffffffffffffff1673ffffffffffffffffffffffffffffffffffffffff16815260200191505060405180910390f35b60016020528060005260406000206000915054906101000a900460ff1681565b600160003373ffffffffffffffffffffffffffffffffffffffff1673ffffffffffffffffffffffffffffffffffffffff16815260200190815260200160002060009054906101000a900460ff16151561031757600080fd5b60016000808373ffffffffffffffffffffffffffffffffffffffff1673ffffffffffffffffffffffffffffffffffffffff16815260200190815260200160002060006101000a81548160ff0219169083151502179055508073ffffffffffffffffffffffffffffffffffffffff167f6cb57146357abe4a05f42c7a747155eb8f37d573de1618a3bfc31b5ca4c8a49d60405160405180910390a250565b600260009054906101000a900473ffffffffffffffffffffffffffffffffffffffff1681565b600160003373ffffffffffffffffffffffffffffffffffffffff1673ffffffffffffffffffffffffffffffffffffffff16815260200190815260200160002060009054906101000a900460ff16151561043257600080fd5b6000808273ffffffffffffffffffffffffffffffffffffffff1673ffffffffffffffffffffffffffffffffffffffff16815260200190815260200160002060009054906101000a900460ff16151561048957600080fd5b80600260006101000a81548173ffffffffffffffffffffffffffffffffffffffff021916908373ffffffffffffffffffffffffffffffffffffffff16021790555050565b600260009054906101000a900473ffffffffffffffffffffffffffffffffffffffff1673ffffffffffffffffffffffffffffffffffffffff163373ffffffffffffffffffffffffffffffffffffffff1614151561052957600080fd5b600060016000600360009054906101000a900473ffffffffffffffffffffffffffffffffffffffff1673ffffffffffffffffffffffffffffffffffffffff1673ffffffffffffffffffffffffffffffffffffffff16815260200190815260200160002060006101000a81548160ff0219169083151502179055506001806000600260009054906101000a900473ffffffffffffffffffffffffffffffffffffffff1673ffffffffffffffffffffffffffffffffffffffff1673ffffffffffffffffffffffffffffffffffffffff16815260200190815260200160002060006101000a81548160ff021916908315150217905550600260009054906101000a900473ffffffffffffffffffffffffffffffffffffffff1673ffffffffffffffffffffffffffffffffffffffff16600360009054906101000a900473ffffffffffffffffffffffffffffffffffffffff1673ffffffffffffffffffffffffffffffffffffffff167f54c6b6d9db9b64c1f118e1e369794ba1840e48683b6714efebefc917ffbd208b60405160405180910390a3600260009054906101000a900473ffffffffffffffffffffffffffffffffffffffff16600360006101000a81548173ffffffffffffffffffffffffffffffffffffffff021916908373ffffffffffffffffffffffffffffffffffffffff1602179055506000600260006101000a81548173ffffffffffffffffffffffffffffffffffffffff021916908373ffffffffffffffffffffffffffffffffffffffff160217905550565b600160003373ffffffffffffffffffffffffffffffffffffffff1673ffffffffffffffffffffffffffffffffffffffff16815260200190815260200160002060009054906101000a900460ff1615156107b957600080fd5b60008060008373ffffffffffffffffffffffffffffffffffffffff1673ffffffffffffffffffffffffffffffffffffffff16815260200190815260200160002060006101000a81548160ff0219169083151502179055508073ffffffffffffffffffffffffffffffffffffffff167fc4d860e165926c875bbb4d5a0eed5c2b458494949609308f9fd1b98ca44525be60405160405180910390a250565b60006020528060005260406000206000915054906101000a900460ff1681565b600360009054906101000a900473ffffffffffffffffffffffffffffffffffffffff16815600a165627a7a72305820fe682534add751f149e13b078bc470b4bb83e67a7b70bc4c99127be07e8dbf0d0029",
  "source": "pragma solidity ^0.4.18;\n\n\ncontract Managed {\n    mapping (address => bool) public isManager;\n\n    mapping (address => bool) public isAdministrator;\n\n    //超级管理员继承人\n    address public heir;\n    //当前超级管理员\n    address public admin;\n\n    event Hired(address indexed manager);\n\n    event Fired(address indexed ex_manager);\n\n    event Abdicated(address indexed old, address indexed _new);\n\n    function Managed() public {\n        admin = msg.sender;\n        isAdministrator[msg.sender] = true;\n        isManager[msg.sender] = true;\n    }\n\n    modifier administrator_only() {\n        require(isAdministrator[msg.sender]);\n        _;\n    }\n\n    modifier official_only() {\n        //普通管理员和超级管理员的操作均可以认为是官方操作\n        require(isManager[msg.sender] || isAdministrator[msg.sender]);\n        _;\n    }\n\n    //超管指定管理员\n    function hire_manager(address new_manager) administrator_only public {\n        isManager[new_manager] = true;\n        Hired(new_manager);\n    }\n\n    //超管取消管理员\n    function fire_manager(address ex_manager) administrator_only public {\n        isManager[ex_manager] = false;\n        Fired(ex_manager);\n    }\n\n    //超管指定继承人\n    function demise(address new_admin) administrator_only public {\n        //是否从管理员委员会指定,暂时未定\n        require(isManager[new_admin]);\n        heir = new_admin;\n    }\n\n    //继承人确认继承超级管理员\n    function succeed() public {\n        require(msg.sender == heir);\n        isAdministrator[admin] = false;\n        isAdministrator[heir] = true;\n        Abdicated(admin, heir);\n        admin = heir;\n        heir = 0;\n    }\n}\n",
  "sourcePath": "/mnt/hgfs/share/feather-contract/contracts/TokenManagement.sol",
  "compiler": {
    "name": "solc",
    "version": "0.4.18+commit.9cf6e910.Emscripten.clang"
  },
  "schemaVersion": "1.0.1",
  "updatedAt": "2017-12-05T09:35:23.497Z"
}