{
  "contractName": "OfficialOps",
  "abi": [
    {
      "constant": true,
      "inputs": [
        {
          "name": "",
          "type": "address"
        }
      ],
      "name": "isAdministrator",
      "outputs": [
        {
          "name": "",
          "type": "bool"
        }
      ],
      "payable": false,
      "stateMutability": "view",
      "type": "function"
    },
    {
      "constant": false,
      "inputs": [
        {
          "name": "new_manager",
          "type": "address"
        }
      ],
      "name": "hire_manager",
      "outputs": [],
      "payable": false,
      "stateMutability": "nonpayable",
      "type": "function"
    },
    {
      "constant": false,
      "inputs": [
        {
          "name": "target",
          "type": "address"
        },
        {
          "name": "freeze",
          "type": "bool"
        }
      ],
      "name": "officialFreezeAccount",
      "outputs": [],
      "payable": false,
      "stateMutability": "nonpayable",
      "type": "function"
    },
    {
      "constant": true,
      "inputs": [],
      "name": "heir",
      "outputs": [
        {
          "name": "",
          "type": "address"
        }
      ],
      "payable": false,
      "stateMutability": "view",
      "type": "function"
    },
    {
      "constant": false,
      "inputs": [
        {
          "name": "new_admin",
          "type": "address"
        }
      ],
      "name": "demise",
      "outputs": [],
      "payable": false,
      "stateMutability": "nonpayable",
      "type": "function"
    },
    {
      "constant": false,
      "inputs": [],
      "name": "succeed",
      "outputs": [],
      "payable": false,
      "stateMutability": "nonpayable",
      "type": "function"
    },
    {
      "constant": false,
      "inputs": [
        {
          "name": "_newCoinAddress",
          "type": "address"
        }
      ],
      "name": "setCoinAddress",
      "outputs": [],
      "payable": false,
      "stateMutability": "nonpayable",
      "type": "function"
    },
    {
      "constant": false,
      "inputs": [
        {
          "name": "_from",
          "type": "address"
        },
        {
          "name": "_to",
          "type": "address"
        },
        {
          "name": "_value",
          "type": "uint256"
        },
        {
          "name": "_data",
          "type": "bytes"
        }
      ],
      "name": "officialTransfer",
      "outputs": [],
      "payable": false,
      "stateMutability": "nonpayable",
      "type": "function"
    },
    {
      "constant": false,
      "inputs": [
        {
          "name": "mintedAmount",
          "type": "uint256"
        }
      ],
      "name": "mintToken",
      "outputs": [],
      "payable": false,
      "stateMutability": "nonpayable",
      "type": "function"
    },
    {
      "constant": false,
      "inputs": [
        {
          "name": "ex_manager",
          "type": "address"
        }
      ],
      "name": "fire_manager",
      "outputs": [],
      "payable": false,
      "stateMutability": "nonpayable",
      "type": "function"
    },
    {
      "constant": true,
      "inputs": [
        {
          "name": "",
          "type": "address"
        }
      ],
      "name": "isManager",
      "outputs": [
        {
          "name": "",
          "type": "bool"
        }
      ],
      "payable": false,
      "stateMutability": "view",
      "type": "function"
    },
    {
      "constant": true,
      "inputs": [],
      "name": "admin",
      "outputs": [
        {
          "name": "",
          "type": "address"
        }
      ],
      "payable": false,
      "stateMutability": "view",
      "type": "function"
    },
    {
      "constant": true,
      "inputs": [],
      "name": "coinAddress",
      "outputs": [
        {
          "name": "",
          "type": "address"
        }
      ],
      "payable": false,
      "stateMutability": "view",
      "type": "function"
    },
    {
      "inputs": [],
      "payable": false,
      "stateMutability": "nonpayable",
      "type": "constructor"
    },
    {
      "payable": false,
      "stateMutability": "nonpayable",
      "type": "fallback"
    },
    {
      "anonymous": false,
      "inputs": [
        {
          "indexed": true,
          "name": "manager",
          "type": "address"
        }
      ],
      "name": "Hired",
      "type": "event"
    },
    {
      "anonymous": false,
      "inputs": [
        {
          "indexed": true,
          "name": "ex_manager",
          "type": "address"
        }
      ],
      "name": "Fired",
      "type": "event"
    },
    {
      "anonymous": false,
      "inputs": [
        {
          "indexed": true,
          "name": "old",
          "type": "address"
        },
        {
          "indexed": true,
          "name": "_new",
          "type": "address"
        }
      ],
      "name": "Abdicated",
      "type": "event"
    }
  ],
  "bytecode": "0x6060604052341561000f57600080fd5b33600360006101000a81548173ffffffffffffffffffffffffffffffffffffffff021916908373ffffffffffffffffffffffffffffffffffffffff16021790555060018060003373ffffffffffffffffffffffffffffffffffffffff1673ffffffffffffffffffffffffffffffffffffffff16815260200190815260200160002060006101000a81548160ff02191690831515021790555060016000803373ffffffffffffffffffffffffffffffffffffffff1673ffffffffffffffffffffffffffffffffffffffff16815260200190815260200160002060006101000a81548160ff0219169083151502179055506000600560006101000a81548173ffffffffffffffffffffffffffffffffffffffff021916908373ffffffffffffffffffffffffffffffffffffffff1602179055506110e08061014f6000396000f3006060604052600436106100c5576000357c0100000000000000000000000000000000000000000000000000000000900463ffffffff1680630a2eb301146100d2578063415272091461012357806364e3b3691461015c57806391f2ebb8146101a05780639975344b146101f5578063acf495f31461022e578063b0bdacc614610243578063c60fbaec1461027c578063c634d03214610320578063f0f5cb0214610343578063f3ae24151461037c578063f851a440146103cd578063fdc61dd114610422575b34156100d057600080fd5b005b34156100dd57600080fd5b610109600480803573ffffffffffffffffffffffffffffffffffffffff16906020019091905050610477565b604051808215151515815260200191505060405180910390f35b341561012e57600080fd5b61015a600480803573ffffffffffffffffffffffffffffffffffffffff16906020019091905050610497565b005b341561016757600080fd5b61019e600480803573ffffffffffffffffffffffffffffffffffffffff16906020019091908035151590602001909190505061058c565b005b34156101ab57600080fd5b6101b3610717565b604051808273ffffffffffffffffffffffffffffffffffffffff1673ffffffffffffffffffffffffffffffffffffffff16815260200191505060405180910390f35b341561020057600080fd5b61022c600480803573ffffffffffffffffffffffffffffffffffffffff1690602001909190505061073d565b005b341561023957600080fd5b610241610830565b005b341561024e57600080fd5b61027a600480803573ffffffffffffffffffffffffffffffffffffffff16906020019091905050610ac4565b005b341561028757600080fd5b61031e600480803573ffffffffffffffffffffffffffffffffffffffff1690602001909190803573ffffffffffffffffffffffffffffffffffffffff1690602001909190803590602001909190803590602001908201803590602001908080601f01602080910402602001604051908101604052809392919081815260200183838082843782019150505050505091905050610bb5565b005b341561032b57600080fd5b6103416004808035906020019091905050610ddf565b005b341561034e57600080fd5b61037a600480803573ffffffffffffffffffffffffffffffffffffffff16906020019091905050610f40565b005b341561038757600080fd5b6103b3600480803573ffffffffffffffffffffffffffffffffffffffff16906020019091905050611035565b604051808215151515815260200191505060405180910390f35b34156103d857600080fd5b6103e0611055565b604051808273ffffffffffffffffffffffffffffffffffffffff1673ffffffffffffffffffffffffffffffffffffffff16815260200191505060405180910390f35b341561042d57600080fd5b61043561107b565b604051808273ffffffffffffffffffffffffffffffffffffffff1673ffffffffffffffffffffffffffffffffffffffff16815260200191505060405180910390f35b60016020528060005260406000206000915054906101000a900460ff1681565b600160003373ffffffffffffffffffffffffffffffffffffffff1673ffffffffffffffffffffffffffffffffffffffff16815260200190815260200160002060009054906101000a900460ff1615156104ef57600080fd5b60016000808373ffffffffffffffffffffffffffffffffffffffff1673ffffffffffffffffffffffffffffffffffffffff16815260200190815260200160002060006101000a81548160ff0219169083151502179055508073ffffffffffffffffffffffffffffffffffffffff167f6cb57146357abe4a05f42c7a747155eb8f37d573de1618a3bfc31b5ca4c8a49d60405160405180910390a250565b6000803373ffffffffffffffffffffffffffffffffffffffff1673ffffffffffffffffffffffffffffffffffffffff16815260200190815260200160002060009054906101000a900460ff168061062c5750600160003373ffffffffffffffffffffffffffffffffffffffff1673ffffffffffffffffffffffffffffffffffffffff16815260200190815260200160002060009054906101000a900460ff165b151561063757600080fd5b600460009054906101000a900473ffffffffffffffffffffffffffffffffffffffff1673ffffffffffffffffffffffffffffffffffffffff1663e724529c83836040518363ffffffff167c0100000000000000000000000000000000000000000000000000000000028152600401808373ffffffffffffffffffffffffffffffffffffffff1673ffffffffffffffffffffffffffffffffffffffff1681526020018215151515815260200192505050600060405180830381600087803b15156106ff57600080fd5b6102c65a03f1151561071057600080fd5b5050505050565b600260009054906101000a900473ffffffffffffffffffffffffffffffffffffffff1681565b600160003373ffffffffffffffffffffffffffffffffffffffff1673ffffffffffffffffffffffffffffffffffffffff16815260200190815260200160002060009054906101000a900460ff16151561079557600080fd5b6000808273ffffffffffffffffffffffffffffffffffffffff1673ffffffffffffffffffffffffffffffffffffffff16815260200190815260200160002060009054906101000a900460ff1615156107ec57600080fd5b80600260006101000a81548173ffffffffffffffffffffffffffffffffffffffff021916908373ffffffffffffffffffffffffffffffffffffffff16021790555050565b600260009054906101000a900473ffffffffffffffffffffffffffffffffffffffff1673ffffffffffffffffffffffffffffffffffffffff163373ffffffffffffffffffffffffffffffffffffffff1614151561088c57600080fd5b600060016000600360009054906101000a900473ffffffffffffffffffffffffffffffffffffffff1673ffffffffffffffffffffffffffffffffffffffff1673ffffffffffffffffffffffffffffffffffffffff16815260200190815260200160002060006101000a81548160ff0219169083151502179055506001806000600260009054906101000a900473ffffffffffffffffffffffffffffffffffffffff1673ffffffffffffffffffffffffffffffffffffffff1673ffffffffffffffffffffffffffffffffffffffff16815260200190815260200160002060006101000a81548160ff021916908315150217905550600260009054906101000a900473ffffffffffffffffffffffffffffffffffffffff1673ffffffffffffffffffffffffffffffffffffffff16600360009054906101000a900473ffffffffffffffffffffffffffffffffffffffff1673ffffffffffffffffffffffffffffffffffffffff167f54c6b6d9db9b64c1f118e1e369794ba1840e48683b6714efebefc917ffbd208b60405160405180910390a3600260009054906101000a900473ffffffffffffffffffffffffffffffffffffffff16600360006101000a81548173ffffffffffffffffffffffffffffffffffffffff021916908373ffffffffffffffffffffffffffffffffffffffff1602179055506000600260006101000a81548173ffffffffffffffffffffffffffffffffffffffff021916908373ffffffffffffffffffffffffffffffffffffffff160217905550565b600160003373ffffffffffffffffffffffffffffffffffffffff1673ffffffffffffffffffffffffffffffffffffffff16815260200190815260200160002060009054906101000a900460ff161515610b1c57600080fd5b610b25816110a1565b1515610b3057600080fd5b80600460006101000a81548173ffffffffffffffffffffffffffffffffffffffff021916908373ffffffffffffffffffffffffffffffffffffffff16021790555080600560006101000a81548173ffffffffffffffffffffffffffffffffffffffff021916908373ffffffffffffffffffffffffffffffffffffffff16021790555050565b6000803373ffffffffffffffffffffffffffffffffffffffff1673ffffffffffffffffffffffffffffffffffffffff16815260200190815260200160002060009054906101000a900460ff1680610c555750600160003373ffffffffffffffffffffffffffffffffffffffff1673ffffffffffffffffffffffffffffffffffffffff16815260200190815260200160002060009054906101000a900460ff165b1515610c6057600080fd5b600460009054906101000a900473ffffffffffffffffffffffffffffffffffffffff1673ffffffffffffffffffffffffffffffffffffffff1663c60fbaec858585856040518563ffffffff167c0100000000000000000000000000000000000000000000000000000000028152600401808573ffffffffffffffffffffffffffffffffffffffff1673ffffffffffffffffffffffffffffffffffffffff1681526020018473ffffffffffffffffffffffffffffffffffffffff1673ffffffffffffffffffffffffffffffffffffffff16815260200183815260200180602001828103825283818151815260200191508051906020019080838360005b83811015610d77578082015181840152602081019050610d5c565b50505050905090810190601f168015610da45780820380516001836020036101000a031916815260200191505b5095505050505050600060405180830381600087803b1515610dc557600080fd5b6102c65a03f11515610dd657600080fd5b50505050505050565b6000803373ffffffffffffffffffffffffffffffffffffffff1673ffffffffffffffffffffffffffffffffffffffff16815260200190815260200160002060009054906101000a900460ff1680610e7f5750600160003373ffffffffffffffffffffffffffffffffffffffff1673ffffffffffffffffffffffffffffffffffffffff16815260200190815260200160002060009054906101000a900460ff165b1515610e8a57600080fd5b600081111515610e9957600080fd5b600460009054906101000a900473ffffffffffffffffffffffffffffffffffffffff1673ffffffffffffffffffffffffffffffffffffffff1663c634d032826040518263ffffffff167c010000000000000000000000000000000000000000000000000000000002815260040180828152602001915050600060405180830381600087803b1515610f2957600080fd5b6102c65a03f11515610f3a57600080fd5b50505050565b600160003373ffffffffffffffffffffffffffffffffffffffff1673ffffffffffffffffffffffffffffffffffffffff16815260200190815260200160002060009054906101000a900460ff161515610f9857600080fd5b60008060008373ffffffffffffffffffffffffffffffffffffffff1673ffffffffffffffffffffffffffffffffffffffff16815260200190815260200160002060006101000a81548160ff0219169083151502179055508073ffffffffffffffffffffffffffffffffffffffff167fc4d860e165926c875bbb4d5a0eed5c2b458494949609308f9fd1b98ca44525be60405160405180910390a250565b60006020528060005260406000206000915054906101000a900460ff1681565b600360009054906101000a900473ffffffffffffffffffffffffffffffffffffffff1681565b600560009054906101000a900473ffffffffffffffffffffffffffffffffffffffff1681565b600080823b9050600081119150509190505600a165627a7a723058203133998a887ca399275f9a9fb903d5cd8c69f549ff5fb631dbb04888ff8753130029",
  "source": "pragma solidity ^0.4.18;\r\n\r\n\r\nimport './TokenManagement.sol';\r\nimport './Coin.sol';\r\n\r\n\r\ncontract CoinOptions is Managed {\r\n\r\n    Coin internal feather;\r\n\r\n\r\n    modifier initial_coin_address ()  {\r\n        //require(feather);\r\n        _;\r\n    }\r\n\r\n    //官方调用交易\r\n    function officialTransfer(address _from, address _to, uint256 _value, bytes _data) official_only initial_coin_address public {\r\n        feather.officialTransfer(_from, _to, _value, _data);\r\n    }\r\n\r\n    //官方冻结or解冻账号\r\n    function officialFreezeAccount(address target, bool freeze) official_only initial_coin_address public {\r\n        feather.freezeAccount(target, freeze);\r\n    }\r\n\r\n    //增发货币\r\n    function mintToken(uint256 mintedAmount) official_only initial_coin_address public {\r\n        require(mintedAmount > 0);\r\n        feather.mintToken(mintedAmount);\r\n    }\r\n}\r\n\r\n\r\ncontract OfficialOps is Managed, CoinOptions {\r\n\r\n\r\n    address public coinAddress;\r\n\r\n\r\n    function OfficialOps() public {\r\n        //coinAddress cant be initialized, but set by administrator later on\r\n        coinAddress = 0x0;\r\n        //feather contract address\r\n    }\r\n\r\n    //annonymous function to receive fund, just like required in erc223 standard\r\n    function() public {\r\n        //throw;\r\n    }\r\n\r\n\r\n    //超管设置被管理的货币地址\r\n    function setCoinAddress(address _newCoinAddress) administrator_only public {\r\n        require(isContract(_newCoinAddress));\r\n        feather = Coin(_newCoinAddress);\r\n        coinAddress = _newCoinAddress;\r\n    }\r\n\r\n    //地址是否是以太坊合约\r\n    function isContract(address _contractAddress) private constant returns (bool) {\r\n        uint length;\r\n        assembly {\r\n        //检索目标地址上的代码大小，这需要汇编\r\n        length := extcodesize(_contractAddress)\r\n        }\r\n        return (length > 0);\r\n    }\r\n}\r\n",
  "sourcePath": "/mnt/hgfs/share/feather-contract/contracts/OfficialOps.sol",
  "compiler": {
    "name": "solc",
    "version": "0.4.18+commit.9cf6e910.Emscripten.clang"
  },
  "schemaVersion": "1.0.1",
  "updatedAt": "2017-12-05T09:35:30.220Z"
}